:100000000C9482020C949F020C949F020C949F0209
:100010000C949F020C949F020C949F020C949F02DC
:100020000C949F020C949F020C94EB040C942605F4
:100030000C949F020C949F020C949F020C949F02BC
:100040000C949F020C949F020C949F020C949F02AC
:100050000C949F020C949F020C949F020C94DD065A
:100060000C949F020C949F020C949F020C949F028C
:100070000C949F020C949F020C949F020C949F027C
:100080000C949F020C949F020C949F020C949F026C
:100090000C949F020C949F020C949F020C949F025C
:1000A0000C949F020C949F020C949F0280047D0488
:1000B0007A047704740471046E046B0468046504A4
:1000C00062045F045C0459045604530450044D0454
:1000D0004A044704440441043E043B043804350404
:1000E00032042F042C0429042604230420041D04B4
:1000F0001A041704140411040E040B040804050464
:100100000204FF03FC03F903F603F303F003ED031A
:10011000EA03E703E403E103DE03DB03D803D503CB
:10012000D203CF03CC03C903C603C303C00305A88E
:100130004CCDB2D44EB93836A9020C50B99186884C
:10014000083CA6AAAA2ABE000000803F00010405C0
:100150000607252423222120000100008C01120023
:100160000200009E014300030000E10104010309B5
:1001700004E5011402030904FB0116030309041337
:10018000020C0001C1120180360181361201000209
:1001900002000010C0167A040001010203010902E6
:1001A0004300020100C03209040000010202010004
:1001B0000524001001052401010104240206052480
:1001C0000600010705820310004009040100020A2D
:1001D00000000007050302400000070584024000FC
:1001E0000004030904140359006F00750072002015
:1001F000004E0061006D00650000001603550053BD
:100200000042002000530065007200690061006C2C
:100210000000000C033100320033003400350000D0
:1002200000000000000000005F0000000700070061
:10023000147F147F14242A7F2A1223130864623641
:10024000495522500005030000001C2241000041D6
:10025000221C0014083E081408083E08080050300C
:10026000000008080808080060600000201008046A
:10027000023E5149453E00427F400042615149469D
:100280002141454B311814127F1027454545393C13
:100290004A49493001710905033649494936064939
:1002A00049291E0036360000005636000008142288
:1002B00041001414141414004122140802015109BD
:1002C00006324979413E7E1111117E7F49494936F6
:1002D0003E414141227F4141221C7F494949417FA2
:1002E000090909013E4149497A7F0808087F004110
:1002F0007F41002040413F017F081422417F404060
:1003000040407F020C027F7F0408107F3E41414144
:100310003E7F090909063E4151215E7F09192946A0
:10032000464949493101017F01013F4040403F1F9B
:100330002040201F3F4038403F63140814630708E3
:100340007008076151494543007F4141000204089C
:1003500010200041417F000402010204404040405F
:1003600040000102040020545454787F484444382B
:100370003844444420384444487F3854545418087E
:100380007E0901020C5252523E7F08040478004458
:100390007D40002040443D007F1028440000417F04
:1003A00040007C041804787C0804047838444444F1
:1003B000387C14141408081414187C7C08040408ED
:1003C0004854545420043F4440203C4040207C1C6E
:1003D0002040201C3C4030403C44281028440C5015
:1003E00050503C4464544C44000836410000007FA7
:1003F0000000004136080010080810087846414601
:10040000786E616E00696E660000407A10F35A00E3
:10041000A0724E18090010A5D4E80000E87648172D
:100420000000E40B54020000CA9A3B000000E1F512
:1004300005000080969800000040420F000000A0D8
:100440008601000000102700000000E80300000003
:10045000006400000000000A00000000000100002D
:100460000000002C76D888DC674F0823DFC1DFAEA0
:1004700059E1B1B796E5E3E453C63AE65199769669
:10048000E8E6C28426EB898C9B62ED407C6FFCEF32
:10049000BC9C9F40F2BAA56FA5F490055A2AF75C60
:1004A000936B6CF9676DC11BFCE0E40D47FEF52012
:1004B000E6B500D0ED902E030094357705008084DA
:1004C0001E080000204E0A000000C80C33333333EE
:1004D0000F986E12831141EF8D2114893BE655165A
:1004E000CFFEE6DB18D1844B381BF77C1D901DA492
:1004F000BBE424203284725E228100C9F124ECA185
:10050000E53D270011241FBECFEFDAE0DEBFCDBFEF
:1005100012E0A0E0B1E0E0E4FCE702C005900D923B
:10052000A639B107D9F717E0A6E9B2E001C01D92DC
:10053000A83EB107E1F70E94A9300C941E3E0C942E
:10054000000081E08093D70080EA8093D80082E1A8
:1005500089BD09B400FEFDCF80E98093D8001092D8
:10056000E0001092A8021092A9028CE08093E200B1
:10057000789408958091A80208952FB7F8948091F7
:10058000A802882369F083E08093E9009BE68091CC
:10059000E80085FD09C082FF03C09093E800F7CF13
:1005A0002FBF2FEF3FEF0CC09091F1008091E8003A
:1005B00085FD03C08BE68093E8002FBF292F30E034
:1005C000C90108952FB7F8948091A802882311F4E7
:1005D00090E010C083E08093E9009091F2009923AD
:1005E00049F48091E80082FF05C085FD03C08BE6D9
:1005F0008093E8002FBF892F08958091A802882357
:1006000071F09FB7F89483E08093E9002BE602C075
:100610002093E8008091E80085FDFACF9FBF089500
:10062000482F8091A8028823D9F12FB7F89484E04D
:100630008093E9008091AB02882341F08091E8002B
:1006400085FD02C02FBF12C01092AB029091E40052
:10065000975E34E08091E80085FD13C02FBF809144
:10066000E400891729F481E08093AB028FEF0895AD
:100670008091A8028823A1F02FB7F8943093E90065
:10068000E9CF4093F1008091E80085FD03C08AE343
:100690008093E80085E08093AA022FBF80E0089550
:1006A0008FEF0895282F8091A802882351F09FB7DB
:1006B000F89484E08093E9008091E80085FD03C010
:1006C0009FBF8FEF08952093F1008091E80085FD92
:1006D00003C08AE38093E80085E08093AA029FBF6D
:1006E00080E00895CF93DF93EC018091A8028823E6
:1006F00009F41CC13FB7F89484E08093E90080912D
:10070000AB02882309F408C18091E80085FD02C08E
:100710003FBF0CC11092AB02FFC09091E400975E06
:100720008091E80085FD13C03FBF8091E4008917E8
:1007300021F481E08093AB02F9C08091A802882364
:1007400009F4F4C03FB7F894B093E900E9CF809181
:10075000F200242F281B822F90E06817790708F4F5
:10076000262F822F90E08134910508F0C6C08A5A66
:100770009F4FFC01EE0FFF1F0590F491E02D0994AF
:1007800089918093F10089918093F1008991809300
:10079000F10089918093F10089918093F100899112
:1007A0008093F10089918093F10089918093F10009
:1007B00089918093F10089918093F10089918093D0
:1007C000F10089918093F10089918093F1008991E2
:1007D0008093F10089918093F10089918093F100D9
:1007E00089918093F10089918093F10089918093A0
:1007F000F10089918093F10089918093F1008991B2
:100800008093F10089918093F10089918093F100A8
:1008100089918093F10089918093F100899180936F
:10082000F10089918093F10089918093F100899181
:100830008093F10089918093F10089918093F10078
:1008400089918093F10089918093F100899180933F
:10085000F10089918093F10089918093F100899151
:100860008093F10089918093F10089918093F10048
:1008700089918093F10089918093F100899180930F
:10088000F10089918093F10089918093F100899121
:100890008093F10089918093F10089918093F10018
:1008A00089918093F10089918093F10089918093DF
:1008B000F10089918093F10089918093F1008991F1
:1008C0008093F10089918093F10089918093F100E8
:1008D00089918093F10089918093F10089918093AF
:1008E000F10089918093F10089918093F1008991C1
:1008F0008093F10089918093F10089918093F100B8
:100900008091E80085FD02C05093E800621B7109E8
:10091000A093AA023FBF04C0B4E040E45AE3A5E0BC
:100920006115710509F0F9CE80E001C08FEFDF910C
:10093000CF9108959FB7F8948091AA02882341F03F
:1009400084E08093E9008AE38093E8001092AA0291
:100950009FBF089560918A0270918B0280918C02F2
:1009600090918D02089580918E02089580918F025A
:1009700008958091900208958091A9020895282FEA
:100980009FB7F8948091A802882339F082E0809381
:10099000E9008091E80085FD03C09FBF8FEF0895B7
:1009A00081EA8093F10080E28093F1001092F100DF
:1009B0001092F1001092F1001092F10081E080930A
:1009C000F1001092F1002093F1008AE38093E80097
:1009D0009FBF80E008951F920F920FB60F921124CF
:1009E0008F939F938091E1001092E100982F83FFF5
:1009F00011C01092E90081E08093EB001092EC00AE
:100A000082E18093ED0088E08093F0001092A802CC
:100A10001092A90292FF13C08091A802882379F056
:100A20008091AA02882359F081508093AA028823DA
:100A300031F484E08093E9008AE38093E8009F9199
:100A40008F910F900FBE0F901F9018951F920F92CD
:100A50000FB60F9211240F931F932F933F934F9331
:100A60005F936F937F938F939F93AF93BF93EF9316
:100A7000FF931092E9008091E80083FF3CC1409110
:100A8000F1003091F1008091F100682F70E0209129
:100A9000F100922F80E0682B792B8091F100A82F34
:100AA000B0E02091F100922F80E0A82BB92B10919B
:100AB000F1000091F10082EF8093E800363009F0F8
:100AC0005AC02FE531E0A90145505040F901379750
:100AD000859194918617970701F5FA018591949174
:100AE0008A179B07D1F49A012E5F3F4FF901659158
:100AF00074912E5F3F4FF9014491212F30E0902FE8
:100B000080E0282B392B2F3F310519F010F02FEF03
:100B100030E0241758F4422F09C0295F3F4F495F46
:100B20005F4FF1E029383F0789F6E5C05EEF80911D
:100B3000E800282F30E0C90185709070892BB9F347
:100B400022FDDCC0342F413108F030E1CB01232FEE
:100B500006C0FC010196E491E093F10021502223AC
:100B6000C1F7630F711D431B5093E8004423F9F64E
:100B70003031E9F2C3C0353061F48EEF8093E80084
:100B80008091E80080FFFCCF862F80688093E3008F
:100B9000B5C0393051F5442309F0ADC06093A802C7
:100BA0001092A9021092AA028EEF8093E80082E8C8
:100BB00091E021E02093E900FC010196E491E093AB
:100BC000EB00EE2369F0AC014F5F5F4FFC018491B5
:100BD0008093EC00CA010196FA0134913093ED0044
:100BE0002F5F253039F78EE181C0383061F440380D
:100BF00009F081C08091E80080FFFCCF8091A802BD
:100C00008093F10050C0313289F4413A09F073C049
:100C10008091E80080FFFCCFEAE8F2E081918093C8
:100C2000F10082E0E139F807C9F73DC03032A1F4A4
:100C3000413209F060C08091E80082FFFCCFEAE811
:100C4000F2E08091F100819382E0E139F807C9F781
:100C50008BEF8093E80027C0323251F4413209F023
:100C60004AC06093A9028091E80080FFFCCF1BC0BE
:100C70003323E9F48091E80080FFFCCF423811F083
:100C800080E00DC0A093E9008091EB0090E025E0AA
:100C9000969587952A95E1F781701092E9008093E7
:100CA000F1001092F1008EEF8093E80027C0313000
:100CB00011F0333001F54230F1F4672BE1F42A2FC3
:100CC0002F77822F81508430B0F48EEF8093E8002C
:100CD0002093E900333079F089E18093EB0081E0E3
:100CE00090E002C0880F991F2A95E2F78093EA00EE
:100CF0001092EA0003C081E28093EB00FF91EF9134
:100D0000BF91AF919F918F917F916F915F914F9123
:100D10003F912F911F910F910F900FBE0F901F9039
:100D20001895807C80938902089595E890937A00C5
:100D3000982F9072906890937B008F7190918902A8
:100D4000982B90937C0085EC80937A0080917A00B8
:100D500086FDFCCF2091780040917900942F80E0AF
:100D600030E0282B392BC90108958C3018F020E091
:100D700030E009C0E82FF0E0E45BFE4FE4918E2FF5
:100D80000E9495069C01C901089514BC85E085BDAB
:100D900081E080936E00789420982198279850984D
:100DA000519886988598229A239A81988098EEE7A0
:100DB000F0E080818260808308951F920F920FB6C9
:100DC0000F9211248F939F938091A6029091A70276
:100DD00001969093A7028093A6029F918F910F9006
:100DE0000FBE0F901F90189523B130E02170307026
:100DF000C901089523B1269530E021703070C901F2
:100E0000089529B130E021703070C901089529B1E9
:100E1000269530E021703070C901089520E030E05F
:100E20001F9B02C021E030E0C90108958FB1829577
:100E300086958695837080FF03C021E030E008C06E
:100E40008FB1829586958770282F30E021703070A1
:100E5000C90108956FB1669570E061707070882760
:100E600077FD8095982F0E94B238089585B18695B8
:100E7000869580FF02C02A9801C02A9A85B186957E
:100E80008695869580FF02C02B9808952B9A089529
:100E90002A982B9808952F923F924F925F926F92CB
:100EA0007F928F929F92AF92BF92CF92DF92EF92FA
:100EB000FF920F931F93DF93CF93CDB7DEB72897A1
:100EC0000FB6F894DEBF0FBECDBF1B012C012983E6
:100ED0003A834B835C8337014801AD82BE82CF8267
:100EE000D886ADA0BEA0CFA0D8A4C801B70120E08D
:100EF00030E040E05FE30E94403A9B01AC01C20158
:100F0000B1010E9499377B018C01C601B50120E037
:100F100030E040E05FEB0E94403A9B01AC016D8DF8
:100F20007E8D8F8D98A10E9499379B01AC01C801DD
:100F3000B7010E94103887FD8DC0C401B30120E0C5
:100F400030E040E05FEB0E94403A9B01AC01C201FF
:100F5000B1010E9499377B018C01C601B50120E0E7
:100F600030E040E05FE30E94403A9B01AC016D8DB0
:100F70007E8D8F8D98A10E9499379B01AC01C8018D
:100F8000B7010E943C3A18160CF464C06D817E8152
:100F90008F81988520E030E040E05FE30E94403A96
:100FA0009B01AC0169817A818B819C810E94993778
:100FB0007B018C0169A57AA58BA59CA520E030E07A
:100FC00040E05FEB0E94403A9B01AC0169A17AA12D
:100FD0008BA19CA10E9499379B01AC01C801B7016C
:100FE0000E94103887FD36C099246D817E818F81E3
:100FF000988520E030E040E05FEB0E94403A9B01A2
:10100000AC0169817A818B819C810E9499377B0137
:101010008C0169A57AA58BA59CA520E030E040E075
:101020005FE30E94403A9B01AC0169A17AA18BA1C8
:101030009CA10E9499379B01AC01C801B7010E9495
:101040003C3A181614F49924939481E09826892D3B
:1010500090E002C080E090E020E030E0019711F4E1
:1010600021E030E0C90128960FB6F894DEBF0FBE2C
:10107000CDBFCF91DF911F910F91FF90EF90DF9047
:10108000CF90BF90AF909F908F907F906F905F9028
:101090004F903F902F9008954F925F926F927F9262
:1010A0008F929F92AF92BF92CF92DF92EF92FF9278
:1010B0000F931F93DF93CF93CDB7DEB728970FB66B
:1010C000F894DEBF0FBECDBF2B013C0129833A83CC
:1010D0004B835C83AD82BE82CF82D886AB8CBC8CC6
:1010E000CD8CDE8CC801B70120E030E040E05FE34A
:1010F0000E94403A9B01AC01C301B2010E949937A2
:10110000A60195010E949937880C991C880C991C9E
:10111000F401EA5CFA4F20813181428153810E94BF
:10112000103887FD69C0C801B70120E030E040E019
:101130005FEB0E94403A9B01AC01C301B2010E94E7
:101140009937A60195010E949837F401EF58FB4F9B
:1011500020813181428153810E943C3A18160CF45F
:101160004BC06D817E818F81988520E030E040E02A
:101170005FE30E94403A9B01AC0169817A818B81D7
:101180009C810E949937A60195010E949937F4012C
:10119000E852FA4F20813181428153810E941038F8
:1011A00087FD2AC010E06D817E818F81988520E0C7
:1011B00030E040E05FEB0E94403A9B01AC01698166
:1011C0007A818B819C810E949937A60195010E94AA
:1011D00098372AEA35E0820E931EF401208131818E
:1011E000428153810E943C3A18160CF411E081E0D0
:1011F0001827812F90E002C080E090E020E030E0EE
:10120000019711F421E030E0C90128960FB6F89457
:10121000DEBF0FBECDBFCF91DF911F910F91FF9029
:10122000EF90DF90CF90BF90AF909F908F907F9086
:101230006F905F904F90089520E030E080E090E064
:10124000FC01E853FA4F118210822530310551F02C
:10125000FC01EB59FB4F11821082FC01E65CFC4F54
:10126000118210822F5F3F4F02962630310541F7E1
:101270000895109245031092440310928E04109228
:101280008D0410924C0410924B041092C7051092DA
:10129000C60510924F0510924E0580E090E0A0E048
:1012A000B0E08093C2059093C305A093C405B093AA
:1012B000C5058093670390936803A0936903B09377
:1012C0006A031092EF031092EE0380938E059093C1
:1012D0008F05A0939005B093910580935F03909341
:1012E0006003A0936103B0936203109270041092A4
:1012F0006F048093D4059093D505A093D605B09341
:10130000D7058093F0039093F103A093F203B09379
:10131000F30308952F923F924F925F926F927F92C4
:101320008F929F92AF92BF92CF92DF92EF92FF92F5
:101330000F931F93CF93DF93109264041092630472
:101340000E941C0980E090E0A0E0B0E08093B4022D
:101350009093B502A093B602B093B7020E943909E8
:1013600010924A041092490480E090E0A0E0B0E0BE
:1013700080939E0290939F02A093A002B093A1023B
:1013800080E090E0A0E2B1E4809385029093860231
:10139000A0938702B0938802C1E0D0E0D0933B03D2
:1013A000C0933A0380E090E0A0EAB1E48093F403B4
:1013B0009093F503A093F603B093F7036090C401F4
:1013C0007090C5018090C6019090C701C401B3011F
:1013D00020E030E040EC5FE30E94173860934D045A
:1013E00070934E0480934F0490935004D093C9059A
:1013F000C093C8052090C0013090C1014090C20147
:101400005090C301C201B10120E030E040E05FE351
:101410000E94403A5B016C0120E030E040E851E47A
:101420000E9498376093360570933705809338058E
:1014300090933905C401B30120E030E040E05FE360
:101440000E94403A7B018C0120E030E040E451E40E
:101450000E9498376093D8057093D9058093DA0578
:101460009093DB05C601B50120E030E040E851E48F
:101470000E9499376093710470937204809373048F
:1014800090937404C801B70120E030E040E451E4D7
:101490000E94993760933004709331048093320432
:1014A0009093330420E030E040E85FE30E949837F7
:1014B0006093AA057093AB058093AC059093AD053E
:1014C000C201B10120E030E040EC5FE30E94173838
:1014D0006093DA037093DB038093DC039093DD0366
:1014E000C401B30120E030E040E45FE30E94403AF1
:1014F00060931C0470931D0480931E0490931F043A
:10150000D0936604C0936504A0928A05B0928B05BF
:10151000C0928C05D0928D05C801B70120E030E063
:1015200040EC50E40E94993720E030E040E050E485
:101530000E94993760934603709347038093480352
:101540009093490310924C0410924B0410926C0338
:1015500010926B03109266031092650383E090E093
:1015600090936204809361041092B3021092B202CD
:1015700080E090E0A0E0B0E08093AE029093AF02F4
:10158000A093B002B093B102A0927105B09272051F
:10159000C0927305D0927405C401B3012DEC3CECEC
:1015A0004CE85FE30E94173860933603709337036B
:1015B0008093380390933903C201B10120E030E0F9
:1015C00040E85EE30E94403A609392057093930571
:1015D0008093940590939505DF91CF911F910F9182
:1015E000FF90EF90DF90CF90BF90AF909F908F9043
:1015F0007F906F905F904F903F902F9008950F9342
:101600001F93CF93DF938C018AE00E941003C0E008
:10161000D0E007C0F801EC0FFD1F80810E9410038D
:101620002196F80101900020E9F73197E01BF10BBA
:10163000CE17DF0778F38AE00E9410038DE00E9446
:101640001003DF91CF911F910F9108952F923F9238
:101650004F925F926F927F928F929F92AF92BF92C2
:10166000CF92DF92EF92FF920F931F93DF93CF936E
:10167000CDB7DEB7A4970FB6F894DEBF0FBECDBFCF
:101680009E8B8D8BFC01EE0FFF1F672B09F4D8C1D9
:10169000E853FA4FA1E04A2E512C518240820E9419
:1016A000F73BA090C001B090C101C090C201D090A2
:1016B000C301AA2797FDA095BA2FBC01CD010E94B6
:1016C000B2383B014C01C601B50120E030E040EEEC
:1016D00051E40E9498377B018C01C601B50123E3D8
:1016E00033E343EB5EEB0E94403A9B01AC01C8013F
:1016F000B7010E94993720E030E040E450E40E94B6
:1017000098379B01AC01C401B3010E9407399B01CA
:10171000AC01CD88DE88CC0CDD1CCC0CDD1C66E376
:10172000A62E65E0B62EAC0CBD1CCA01B90120E0A6
:1017300030E040E651E40E949937D5016D937D93E6
:101740008D939C9313970E94F73BAA2797FDA09532
:10175000BA2FBC01CD010E94B2387B018C0160918F
:10176000C4017091C5018091C6019091C70120E02C
:1017700030E040E052E40E94983720E030E040E45E
:1017800050E40E9498379B01AC01C801B7010E9448
:1017900007399B01AC01CA01B90120E030E040E803
:1017A00051E40E9499377B018C0128ED622E25E0DF
:1017B000722E6C0C7D1CF301608371838283938392
:1017C00091E7892E94E0992E8C0C9D1C6091C001AC
:1017D0007091C1018091C2019091C3012DEC3CEC4C
:1017E0004CE45EE30E94403A9B01AC01D5016D914F
:1017F0007D918D919C910E949937F4016083718352
:10180000828393838AEA95E0C80ED91EC801B70186
:1018100020E030E040E450E40E949937D6016D9317
:101820007D938D939C9313972D883E880894211C5B
:10183000311CF101EE0FFF1FE853FA4F5182408235
:101840000E94F73BF501A080B180C280D380AA2717
:1018500097FDA095BA2FBC01CD010E94B2387B0143
:101860008C01D4016D917D918D919C91A601950182
:101870000E9498379B01AC01C801B7010E9407394B
:101880009B01AC014101880C991C880C991C8401B6
:101890000A5C1A4FC601B5010E949937F8016083AE
:1018A000718382839383D301AD90BD90CD90DC9002
:1018B0000E94F73B7C014090C4015090C5016090AC
:1018C000C6017090C701C301B2012DEC3CEC4CE4A1
:1018D0005EE30E94403A698B7A8B8B8B9C8B00274E
:1018E000F7FC0095102FC801B7010E94B2387B01A8
:1018F0008C0169897A898B899C892AE939E949E5CA
:101900005FE30E94403A9B01AC01C801B7010E940D
:1019100007399B01AC01C601B5010E9498378401CB
:1019200008521A4FF801608371838283938320E009
:1019300030E040E450E40E94993720E030E040E895
:1019400051E40E94103888234CF480E090E0A0E538
:10195000B1E4F80180839183A283B3836101CC0C4D
:10196000DD1CCC0CDD1C88ED95E0C80ED91E698904
:101970007A898B899C89D6012D913D914D915C91FD
:101980000E9499377B018C01C301B20120E030E055
:1019900040E851E40E9498379B01AC01C801B701AF
:1019A0000E943C3A1816CCF4C301B2012DEC3CEC79
:1019B0004CE45EEB0E94403A9B01AC01C301B201D2
:1019C0000E94993720E030E040E851E40E949837C7
:1019D000F60160837183828393838101000F111F5D
:1019E000000F111FA1E7EA2EA4E0FA2EE00EF11E6F
:1019F000F801EA5CFA4F608171818281938120E075
:101A000030E040E450E40E949937D7016D937D9314
:101A10008D939C931397F801E852FA4F608171817E
:101A20008281938129893A894B895C890E949937FF
:101A300006551A4FF801608371838283938370C2C5
:101A4000E853FA4F81E090E0918380830E94F73B56
:101A500080FD1BC06091C4017091C5018091C601D9
:101A60009091C7012DEC3CEC4CE45EE30E94403ABF
:101A700069877A878B879C8780E090E0A0E4B0E458
:101A80008D879E87AF87B88B1AC06091C001709117
:101A9000C1018091C2019091C3012DEC3CEC4CE45A
:101AA0005EE30E94403A6D877E878F87988B80E047
:101AB00090E0A0E4B0E489879A87AB87BC870E9456
:101AC000F73BAA2797FDA095BA2FBC01CD010E9434
:101AD000B2387B018C016091C0017091C10180918D
:101AE000C2019091C30120E030E040E651E40E9441
:101AF00098372D853E854F8558890E9498379B01E0
:101B0000AC01C801B7010E9407399B01AC01CD8827
:101B1000DE88CC0CDD1CCC0CDD1CE6E36E2EE5E093
:101B20007E2E6C0C7D1CCA01B90120E030E040EE35
:101B300050E40E949937D3016D937D938D939C93CC
:101B400013970E94F73BAA2797FDA095BA2FBC01D7
:101B5000CD010E94B2387B018C016091C40170916B
:101B6000C5018091C6019091C70120E030E040E8B6
:101B700051E40E94983729853A854B855C850E94FF
:101B800098379B01AC01C801B7010E9407399B013E
:101B9000AC01CA01B90120E030E040E051E40E940C
:101BA00099377B018C0178ED872E75E0972E8C0C90
:101BB0009D1CF401E082F1820283138361E7A62E6B
:101BC00064E0B62EAC0CBD1CD3016D917D918D915E
:101BD0009C912D853E854F8558890E949937F50146
:101BE00060837183828393838AEA95E0C80ED91E4D
:101BF000C801B70129853A854B855C850E949937D4
:101C0000D6016D937D938D939C9313971E821D82B5
:101C10007C8E6B8E9E8E8D8EB8A2AF8EDAA2C9A2FC
:101C20000E94F73BAA2797FDA095BA2FBC01CD01D2
:101C30000E94B2387B018C016091C0017091C1019A
:101C40008091C2019091C30120E030E040EE50E469
:101C50000E9498372D853E854F8558890E94983778
:101C60009B01AC01C801B7010E9407399B01AC017F
:101C7000CA01B90120E030E040EE50E40E949937FB
:101C8000EB8DFC8D60837183828393830E94F73B8D
:101C90007C016091C4017091C5018091C601909151
:101CA000C70120E030E040E051E40E9498376F8B9C
:101CB000788F898F9A8F0027F7FC0095102FC80125
:101CC000B7010E94B2387B018C016F89788D898DB4
:101CD0009A8D29853A854B855C850E9498379B01B2
:101CE000AC01C801B7010E9407399B01AC01CA01D0
:101CF000B90120E030E040E051E40E9499372B0127
:101D00003C01AD8DBE8D6D937D938D939C93139708
:101D1000AB8DBC8D8D919D910D90BC91A02D898333
:101D20009A83AB83BC83BC01CD012D853E854F8555
:101D300058890E9499375B016C01EF8DF8A160838F
:101D4000718382839383C301B20129853A854B85D0
:101D50005C850E9499377B018C01A9A1BAA16D9382
:101D60007D938D939C93139769817A818B819C815C
:101D700020E030E040EE50E40E943C3A18160CF0AF
:101D8000B4C06091C0017091C1018091C201909175
:101D9000C30120E030E040EE50E40E9498379B0100
:101DA000AC01C601B5010E94103888230CF09DC01B
:101DB000C301B20120E030E040E051E40E943C3A2F
:101DC00018160CF092C0C801B7012F89388D498DC3
:101DD0005A8D0E94103888230CF087C058EC252EAD
:101DE00055E0352E18861F82882499241CA21BA238
:101DF000F10180819181892B09F465C08D899E89CB
:101E00008816990609F45FC0EBA1FCA1EA5CFA4FC1
:101E1000608171818281938120E030E040E651E46D
:101E20000E9498379B01AC01C601B5010E943C3A63
:101E300018160CF048C0EBA1FCA1EF58FB4F6081D5
:101E400071818281938120E030E040E651E40E947C
:101E500099379B01AC0169817A818B819C810E94B9
:101E60001038882384F5EBA1FCA1E852FA4F608179
:101E700071818281938120E030E040E851E40E944A
:101E800098379B01AC01C801B7010E943C3A181673
:101E9000D4F4EBA1FCA1E655FA4F608171818281F7
:101EA000938120E030E040E851E40E9499379B01A3
:101EB000AC01C301B2010E941038882324F4A1E0D0
:101EC000B0E0B887AF830894811C911CE2E0F0E099
:101ED0002E0E3F1E8BA19CA104969CA38BA396E083
:101EE0008916910409F084CF04C0A1E0B0E0B8875E
:101EF000AF83ED81FE813196FE83ED83E152FE4496
:101F000051F48D899E89880F991F88539A4FDC015F
:101F10001D921C9205C0EF81F885EF2B09F080CE51
:101F2000A4960FB6F894DEBF0FBECDBFCF91DF9160
:101F30001F910F91FF90EF90DF90CF90BF90AF90E7
:101F40009F908F907F906F905F904F903F902F90D9
:101F50000895EF92FF920F931F93DF93CF93CDB726
:101F6000DEB7EC970FB6F894DEBF0FBECDBF7C0195
:101F700060917502709176028E010F5F1F4FC8014C
:101F80000E94F53CC801B7010E94EA3CC8010E94CA
:101F9000FF0AEC960FB6F894DEBF0FBECDBFCF910F
:101FA000DF911F910F91FF90EF9008958F929F9274
:101FB000AF92BF92CF92DF92EF92FF920F931F9357
:101FC000DF93CF93CDB7DEB764970FB6F894DEBF3B
:101FD0000FBECDBF5C01E090AE02F090AF02009169
:101FE000B0021091B102C801B7010E94ED3820E0A3
:101FF00030E040E752E40E9407399B01AC01CA017E
:10200000B9010E947F384B01C801B70120E030E0E0
:1020100040E752E40E9417380E94ED380E947F3852
:102020007B018C01C50160E071E00E94F53CC701B5
:10203000BE016F5F7F4F4AE050E00E94073D8AE09B
:10204000E816F1042CF4C50163E071E00E94EA3C5B
:10205000C5018E010F5F1F4FB8010E94EA3CC50108
:1020600065E071E00E94EA3CC401B8014AE050E03A
:102070000E94073D8AE0881691042CF4C50163E0B4
:1020800071E00E94EA3CC501BE016F5F7F4F0E9474
:10209000EA3C64960FB6F894DEBF0FBECDBFCF9179
:1020A000DF911F910F91FF90EF90DF90CF90BF9045
:1020B000AF909F908F900895EF92FF920F931F9390
:1020C000DF93CF93CDB7DEB7C05FD0400FB6F894A3
:1020D000DEBF0FBECDBF7E010894E11CF11CC7011D
:1020E0000E94D60F6091020270910302C7010E9404
:1020F000EA3C8E0107581F4F80916503909166035B
:10210000B8014AE050E00E94073DC701B8010E94B3
:10211000EA3C60910C0270910D02C7010E94EA3CFA
:102120008091610490916204B8014AE050E00E94FD
:10213000073DC701B8010E94EA3C60911602709108
:102140001702C7010E94EA3C8091B2029091B3024B
:10215000B8014AE050E00E94073DC701B8010E9463
:10216000EA3C6091710570917205809173059091C0
:1021700074050E947F38DC01CB01B8014AE050E0D1
:102180000E94073DC701B8010E94EA3C60913603F6
:102190007091370380913803909139030E947F3802
:1021A000DC01CB01B8014AE050E00E94073DC701C5
:1021B000B8010E94EA3CC7010E94FF0AC051DF4FEC
:1021C0000FB6F894DEBF0FBECDBFCF91DF911F9148
:1021D0000F91FF90EF900895AF92BF92CF92DF9250
:1021E000EF92FF920F931F936091A6027091A70246
:1021F000E6B4882777FD8095982F0E94B23820E0BA
:1022000030E040E853E40E94403A5B016C01FF2457
:102210000027F7FC0095102FC801B7010E94B238C3
:102220009B01AC01C601B5010E94993720E030E066
:1022300040E854E40E94403A20E034E244EF5AE49B
:102240000E9417386093AE027093AF028093B00281
:102250009093B10220E030E044E052E40E94403A22
:1022600020E030E040E251E40E9407390E94ED385E
:1022700020E030E040E050E00E941038882311F464
:102280000E945C101F910F91FF90EF90DF90CF9014
:10229000BF90AF9008954F925F926F927F928F920E
:1022A0009F92AF92BF92CF92DF92EF92FF920F93E5
:1022B0001F93DF93CF93CDB7DEB7A8970FB6F894EF
:1022C000DEBF0FBECDBF2C013A014B017801890161
:1022D0005E010894A11CB11CC50160E071E00E9480
:1022E000F53CC801B70120E030E040E051E40E9435
:1022F000403A0E9484386B017C0185E06C2DA2017C
:1023000021E00E949D32C401B3010E947F38DC01AC
:10231000CB018E010B5E1F4FB8014AE050E00E94D6
:10232000073DC501B8010E94EA3C8AE26C2DA50177
:1023300021E00E949D32A8960FB6F894DEBF0FBE32
:10234000CDBFCF91DF911F910F91FF90EF90DF9064
:10235000CF90BF90AF909F908F907F906F905F9045
:102360004F9008950F931F93009102021091030262
:102370006091650370916603882777FD8095982F9B
:102380000E94B238AB01BC01C80100E010E020E8B7
:102390003FE30E944B1100911602109117026091C9
:1023A000B2027091B302882777FD8095982F0E9422
:1023B000B238AB01BC01C80100E010E020E030E41D
:1023C0000E944B111F910F9108954091F801509177
:1023D000F90185E060E021E00E949D320E94B21187
:1023E00008950F931F93DF93CF93CDB7DEB7649714
:1023F0000FB6F894DEBF0FBECDBF0E94B2110091A0
:102400000C0210910D0260916104709162048827A2
:1024100077FD8095982F0E94B238AB01BC01C801AE
:1024200000E010E020E430E40E944B1140911F02D4
:102430005091200285E060E221E00E949D328E01F1
:102440000F5F1F4FC8010E94D60F8AE260E2A80109
:1024500021E00E949D3264960FB6F894DEBF0FBE55
:10246000CDBFCF91DF911F910F9108950E94A102DE
:102470000E948A09E1E6F0E080E8808381E08083C1
:102480000E94C5068FE30E94F13208956F927F92F9
:102490008F929F92AF92BF92CF92DF92EF92FF9274
:1024A0000F931F93DF93CF93CDB7DEB73B014C0162
:1024B000CA01B901A40193010E9498379B01AC01A4
:1024C0000E94403A3B014C01C601B501A8019701A9
:1024D0000E9498379B01AC010E94403A9B01AC01DD
:1024E000C401B3010E9499370E947F38882777FD85
:1024F0008095982F0E94B2380E94CD3A00E010E0FB
:1025000029893A894B895C890E941038882314F400
:1025100001E010E0C801CF91DF911F910F91FF9072
:10252000EF90DF90CF90BF90AF909F908F907F9073
:102530006F9008952F923F924F925F926F927F9289
:102540008F929F92AF92BF92CF92DF92EF92FF92C3
:102550000F931F93DF93CF93CDB7DEB766970FB678
:10256000F894DEBF0FBECDBF98878F837A876987C7
:102570002B873C874D875E8717012801D88ACF8635
:102580000E94F73BAA2797FDA095BA2FBC01CD0169
:102590000E94B2387B018C016B857C858D859E8580
:1025A00020E030E040E05FEB0E94403A2091C00123
:1025B0003091C1014091C2015091C3010E949937ED
:1025C0009B01AC01C801B7010E9407399B01AC0116
:1025D0006B857C858D859E850E949937AF81B885F6
:1025E0006D937D938D939C9313970E94F73BAA273D
:1025F00097FDA095BA2FBC01CD010E94B2387B0196
:102600008C01C201B10120E030E040E05FEB0E94AC
:10261000403A2091C4013091C5014091C6015091CA
:10262000C7010E9499379B01AC01C801B7010E9404
:1026300007399B01AC01C201B1010E949937E985BC
:10264000FA8560837183828393831C821B826091ED
:10265000890470918A0480918B0490918C0420E00D
:1026600030E040E251E40E9499376093890470930E
:102670008A0480938B0490938C040E948438DC013C
:10268000CB010E94FC3B0E94F73BAA2797FDA09537
:10269000BA2FBC01CD010E94B2387B018C016B8541
:1026A0007C858D859E8520E030E040E050EC0E94E6
:1026B000403A2091C0013091C1014091C201509136
:1026C000C3010E9499379B01AC01C801B7010E9468
:1026D00007399B01AC016B857C858D859E850E94A9
:1026E0009937AF81B8856D937D938D939C931397A4
:1026F0000E94F73BAA2797FDA095BA2FBC01CD01F8
:102700000E94B2387B018C01C201B10120E030E0AF
:1027100040E050EC0E94403A2091C4013091C50144
:102720004091C6015091C7010E9499379B01AC01AD
:10273000C801B7010E9407399B01AC01C201B10178
:102740000E949937E985FA85608371838283938338
:1027500088EC95E09A83898315E6612E14E0712E4A
:102760001E821D82882499241A8A198A95E0891666
:10277000910409F442C0D3018D919C910197E9F530
:1027800000D000D0AF81B8858D919D910D90BC9106
:10279000A02D8B8B9C8BAD8BBE8BE989FA89E65281
:1027A000FC4F2081318142815381E985FA85E080A7
:1027B000F18002811381E989FA89E45EFB4FA080F0
:1027C000B180C280D38080E090E0A0EFB1E4EDB7AB
:1027D000FEB781839283A383B4836B897C898D89BF
:1027E0009E890E9446120F900F900F900F90892B98
:1027F00021F081E090E09E838D83A981BA818D9143
:102800009C91019709F05CC0EF81F885E080F18030
:1028100002811381C801B7012B853C854D855E85FA
:102820000E949937E989FA89EA5CFA4F208131815F
:10283000428153810E94103887FD42C0C801B70110
:102840002B853C854D855E850E949837E989FA89FC
:10285000EF58FB4F20813181428153810E943C3AE5
:10286000181674F1A985BA85ED90FD900D911C9113
:10287000C801B701A20191010E949937E989FA893B
:10288000E852FA4F20813181428153810E941038F1
:1028900087FD16C0C801B701A20191010E949837B7
:1028A000E989FA89E655FA4F2081318142815381C5
:1028B0000E943C3A181624F0E1E0F0E0FE83ED833C
:1028C0000894811C911C89819A8102969A8389833C
:1028D000A989BA891496BA8BA98BE2E0F0E06E0E52
:1028E0007F1EF6E08F16910409F040CF8F859889FE
:1028F0000197E9F100D000D0AF81B8856D917D914D
:102900008D919C912091D4053091D5054091D605AB
:102910005091D705E985FA85E080F1800281138125
:10292000A090F003B090F103C090F203D090F303B5
:102930000F2EF0E06F2EF0E07F2EF0E28F2EF1E40C
:102940009F2EF02DADB7BEB711966D927D928D92F0
:102950009C9214970E9446120F900F900F900F9028
:10296000892B09F0B5C0EF85F8893297E9F100D0DD
:1029700000D0AF81B8856D917D918D919C91209112
:102980008E0530918F054091900550919105E98514
:10299000FA85E080F18002811381A0905F03B090FE
:1029A0006003C0906103D09062030F2EF0E06F2EA1
:1029B000F0E07F2EF0E28F2EF1E49F2EF02DADB7E8
:1029C000BEB711966D927D928D929C9214970E9443
:1029D00046120F900F900F900F90892B09F078C03E
:1029E000EF85F8893397E1F100D000D0AF81B88549
:1029F0006D917D918D919C912091C2053091C3057F
:102A00004091C4055091C505E985FA85E080F180C3
:102A100002811381A0906703B0906803C09069039E
:102A2000D0906A030F2EF0E06F2EF0E07F2EF0E2E0
:102A30008F2EF1E49F2EF02DADB7BEB711966D929B
:102A40007D928D929C9214970E9446120F900F9047
:102A50000F900F90892BE1F5EF85F8893497E1F11C
:102A600000D000D0AF81B8856D917D918D919C9102
:102A700020919205309193054091940550919505D0
:102A8000E985FA85E080F18002811381A09030040D
:102A9000B0903104C0903204D09033040F2EF0E097
:102AA0006F2EF0E07F2EF0E28F2EF1E49F2EF02DBE
:102AB000ADB7BEB711966D927D928D929C92149790
:102AC0000E9446120F900F900F900F90892B21F0CB
:102AD000E1E0F0E0FE83ED838B819C8101969C8395
:102AE0008B8381529E4429F0ED81FE81EF2B09F00A
:102AF000AECD66960FB6F894DEBF0FBECDBFCF91B8
:102B0000DF911F910F91FF90EF90DF90CF90BF90DA
:102B1000AF909F908F907F906F905F904F903F907D
:102B20002F9008952F923F924F925F926F927F92D3
:102B30008F929F92AF92BF92CF92DF92EF92FF92CD
:102B40000F931F93CF93DF93EC012B011A010E9487
:102B500039090E941C0980E090E061E070E00E9469
:102B6000260B02E010E007C0C80160E070E00E94A0
:102B7000260B0F5F1F4F0C171D07B4F39AE3892E26
:102B800093E0992EAA24BB24C0E0D0E081E0682E17
:102B9000712C18C0BE01635B7B4FCE018C509C4FE3
:102BA00020E030E040EE50E479018A01CC24DD24BD
:102BB0000E949A12F401619271924F010894A11C33
:102BC000B11C2496A414B5042CF305E6802E04E071
:102BD000902EAA24BB24C0E0D0E011E0612E712C1D
:102BE00020C0BE01645E7B4FCE0186529C4F20E028
:102BF00030E040EE50E40F2EF0E0EF2EF0E0FF2E3C
:102C0000F0EC0F2FF0E41F2FF02DCC24DD240E94D8
:102C10009A12F401619271924F010894A11CB11CA7
:102C20002496A214B304ECF28AE895E066E473E01B
:102C300020E030E040E051E40F2EF0E0EF2EF0E035
:102C4000FF2EF0E10F2FF1E41F2FF02DCC24DD2417
:102C50000E949A1210924C0410924B0482E995E063
:102C600060E374E020E030E040E051E40F2EF0E05B
:102C7000EF2EF0E0FF2EF0E40F2FF0E41F2FF02DE9
:102C8000B4E0CB2ED12C0E949A1281E795E066E346
:102C900073E020E030E040EE50E40F2EF0E0EF2E45
:102CA000F0E0FF2EF0E00F2FF1E41F2FF02DCC24E9
:102CB000DD240E949A120E94F73B24E630E0829FB6
:102CC000B001839F700D929F700D1124882777FDAE
:102CD0008095982F0E94B23820E030E048EC52E412
:102CE0000E94073920E030E040EF51E40E941038A4
:102CF0001816ECF084ED95E060EF73E020E030E032
:102D000040E051E40F2EF0E0EF2EF0E0FF2EF0EE69
:102D10000F2FF0E41F2FF02DA1E0CA2ED12C0E941E
:102D20009A1281E090E09093700480936F04609118
:102D3000890470918A0480918B0490918C0420E026
:102D400030E040E251E40E94993760938904709327
:102D50008A0480938B0490938C040E948438DC0155
:102D6000CB010E94FC3B0E94F73B24E630E0829FAF
:102D7000B001839F700D929F700D1124882777FDFD
:102D80008095982F0E94B23820E030E048EC52E461
:102D90000E94073920E030E040EF51E40E941038F3
:102DA00018161CF182EC95E067E673E020E030E055
:102DB00040EE50E40F2EF0E0EF2EF0E0FF2EF0ECAE
:102DC0000F2FF0E41F2FF02DF3E0CF2ED12C0E9417
:102DD0009A1281E090E090934F0580934E0584E035
:102DE00090E09093AD028093AC0260918904709161
:102DF0008A0480918B0490918C0420E030E040E2C2
:102E000051E40E9499376093890470938A048093F7
:102E10008B0490938C040E948438DC01CB010E94C7
:102E2000FC3B0E94F73B24E630E0829FB001839F89
:102E3000700D929F700D1124882777FD8095982F33
:102E40000E94B23820E030E048EC52E40E9407399A
:102E500020E030E040EF51E40E9410381816ECF00A
:102E60008EE895E06FE573E020E030E040EE50E45E
:102E70000F2EF0E0EF2EF0E0FF2EF0EC0F2FF0E43D
:102E80001F2FF02DE2E0CE2ED12C0E949A1281E06D
:102E900090E09093EF038093EE03DF91CF911F9129
:102EA0000F91FF90EF90DF90CF90BF90AF909F90E9
:102EB0008F907F906F905F904F903F902F900895EC
:102EC0000F931F934091EB015091EC01DA01FD014A
:102ED00001900020E9F73197EA1BFB0BF695E79587
:102EE0009F01220F331F220F331F2E0F3F1F8AE235
:102EF000821B6CE021E00E949D326091A2027091E1
:102F0000A3028091A4029091A50222E03BE247E84F
:102F10005DE30E9498376093A2027093A3028093AE
:102F2000A4029093A5022FE43FEA44E95DE30E94E6
:102F3000103818160CF448C0109251051092500524
:102F400080E090E0A0E0B0E08093A2029093A30222
:102F5000A093A402B093A5028091B2029091B30213
:102F600001969093B3028093B20280916503909191
:102F700066038C599F4F90936603809365030E946C
:102F8000F73B8C010E94F73B9C01C80165E070E0B3
:102F90000E94483BFC01C90164E070E00E94483B8C
:102FA000AC014F5F5F4F86E090E0BF010E94921539
:102FB00080E090E0A0E4B0E48093850290938602E4
:102FC000A0938702B09388021F910F9108952F92CA
:102FD0003F924F925F926F927F928F929F92AF92A9
:102FE000BF92CF92DF92EF92FF920F931F93DF93E6
:102FF000CF93CDB7DEB764970FB6F894DEBF0FBEA0
:10300000CDBF6D837E838F83988719012A01E9865E
:10301000FA860B871C87AD86BE86CF86D88AA0909D
:103020009602B0909702C0909802D0909902A601A3
:1030300095010E9499377B018C01C601B50120E002
:1030400030E048EA52E40E9499379B01AC01C80184
:10305000B7010E94103888230CF0D3C060909A0208
:1030600070909B0280909C0290909D02C201B101E1
:10307000A40193010E9499377B018C01C401B30123
:1030800020E030E040E452E40E9499379B01AC011B
:10309000C801B7010E94103888230CF0B2C06985BE
:1030A0007A858B859C85A60195010E949937A6019A
:1030B00095010E943C3A18160CF0A3C06D857E85E0
:1030C0008F859889A40193010E949937A4019301E7
:1030D0000E943C3A18160CF094C0C201B10120E0E5
:1030E00030E040E050E00E94103888232CF4EE24B9
:1030F000FF2400E010E002C0710182016D857E8531
:103100008F85988920E030E040E452E40E943C3A08
:1031100018163CF4198A1A8A80E48B8B92E49C8BF3
:1031200008C08D859E85AF85B889898B9A8BAB8BBE
:10313000BC8B6D817E818F81988520E030E040E0FE
:1031400050E00E94103888232CF480E090E0A0E04A
:10315000B0E004C08D819E81AF81B88589839A8358
:10316000AB83BC8369857A858B859C8520E030E0C4
:1031700048EA52E40E943C3A18165CF40F2EF0E044
:103180002F2EF0E03F2EF8EA4F2EF2E45F2EF02DC6
:1031900004C029843A844B845C84C701D8013C0173
:1031A0004D0125C0C401B3010E9484385B016C014C
:1031B00069817A818B819C810E9484387B018C019A
:1031C000C201B1010E9484389B01AC018E2D6A2D91
:1031D000422F2A2D01E00E94F930C401B30120E002
:1031E00030E040E85FE30E9499373B014C01C401A5
:1031F000B30129893A894B895C890E94103887FD7F
:10320000D1CF64960FB6F894DEBF0FBECDBFCF917D
:10321000DF911F910F91FF90EF90DF90CF90BF90C3
:10322000AF909F908F907F906F905F904F903F9066
:103230002F9008952F923F924F925F926F927F92BC
:103240008F929F92AF92BF92CF92DF92EF92FF92B6
:103250000F931F93DF93CF93CDB7DEB728970FB6A9
:10326000F894DEBF0FBECDBF642E552E362E272E0E
:10327000422E732E892B09F485C0B801822F932F1B
:1032800020E030E040E050E00E94103888232CF429
:1032900080E090E0A0E0B0E003C0C801A42DB72D0D
:1032A0008D839E83AF83B887B401C50120E030E0F1
:1032B00040E452E40E943C3A18162CF480E090E07E
:1032C000A0E4B2E402C0C401D50189839A83AB8330
:1032D000BC83662D752D832D922D20E030E040E0DB
:1032E00050E00E94103888235CF40F2EF0E08F2EFF
:1032F000F0E09F2EF0E0AF2EF0E0BF2EF02D06C0E4
:10330000862D952DA32DB22D4C015D01B601C7016F
:1033100020E030E048EA52E40E943C3A18165CF49F
:103320000F2EF0E0EF2EF0E0FF2EF8EA0F2FF2E480
:103330001F2FF02D04C0C601D7017C018D01C501EE
:10334000B4010E9484382B013C016D817E818F8104
:1033500098850E9484384B015C01C801B7010E9426
:1033600084386B017C0169817A818B819C810E9408
:1033700084388B019C01842D682D4C2D202F01E079
:103380000E94F93028960FB6F894DEBF0FBECDBF6D
:10339000CF91DF911F910F91FF90EF90DF90CF9031
:1033A000BF90AF909F908F907F906F905F904F9065
:1033B0003F902F9008952F923F924F925F926F927D
:1033C0007F928F929F92AF92BF92CF92DF92EF92B5
:1033D000FF920F931F93DF93CF93CDB7DEB768971C
:1033E0000FB6F894DEBF0FBECDBF988F8F8B4D8385
:1033F0005E836F83788709871A872B873C87ED86E2
:10340000CE8615016E2D669570E0882777FD809534
:10341000982F0E94B23869837A838B839C836D8155
:103420007E818F81988529813A814B815C810E94C0
:1034300098376F87788B898B9A8BE0909602F09003
:1034400097020091980210919902C801B70120E0FB
:1034500030E048EA52E40E9499379B01AC016F8545
:10346000788989899A890E94103888230CF071C064
:103470006E85669570E0882777FD8095982F0E946D
:10348000B2382B013C0169857A858B859C85A30127
:1034900092010E9498376B8B7C8B8D8B9E8B8090DA
:1034A0009A0290909B02A0909C02B0909D02C50150
:1034B000B40120E030E040E452E40E9499379B01DF
:1034C000AC016B897C898D899E890E941038882384
:1034D0000CF03FC06D817E818F81988529813A8172
:1034E0004B815C810E949937A80197010E943C3A68
:1034F00018167CF569857A858B859C85A3019201D8
:103500000E949937A50194010E943C3A18160CF5C7
:103510006F85788989899A89A80197010E949837CF
:103520006B017C016B897C898D899E89A501940141
:103530000E9498378B019C018F89988DB701A60155
:10354000ED84CE8451010E943F338F89988D0E9473
:10355000673368960FB6F894DEBF0FBECDBFCF912C
:10356000DF911F910F91FF90EF90DF90CF90BF9070
:10357000AF909F908F907F906F905F904F903F9013
:103580002F9008952F923F924F925F926F927F9269
:103590008F929F92AF92BF92CF92DF92EF92FF9263
:1035A0000F931F93DF93CF93CDB7DEB76C970FB612
:1035B000F894DEBF0FBECDBF8091B2029091B302EE
:1035C000892B71F56091C0017091C1018091C20198
:1035D0009091C30120E030E040E05FE30E94403A78
:1035E0006B017C016091C4017091C5018091C6019D
:1035F0009091C70120E030E040E05FE30E94403A54
:103600008B019C0184E394E0B701A601E0E2EE2E79
:10361000B8E1CB2EA1E3AA2EA1E0BA2E0E94DB19BD
:1036200040918A0550918B0560918C0570918D05B4
:1036300000914603109147032091480330914903BC
:103640008CE595E0F8E0EF2EE9E0CE2EBAE9AB2E5E
:10365000B1E0BB2E0E94DB194091710550917205BB
:1036600060917305709174050091360310913703D2
:1036700020913803309139038AE493E0A7E0EA2EE1
:10368000F8E0CF2EE9E2AE2EE1E0BE2E0E94DB197B
:103690008091EE039091EF03019731F48091C6057C
:1036A0009091C705019771F080914E0590914F055B
:1036B000019709F09AC080914403909145030197C6
:1036C00009F093C060907105709072058090730549
:1036D0009090740520909602309097024090980246
:1036E000509099028091360390913703A09138034E
:1036F000B091390389839A83AB83BC8380919A020A
:1037000090919B02A0919C02B0919D028D879E8713
:10371000AF87B88BE090B402F090B5020091B6028A
:103720001091B702C801B7010E9414385B016C0107
:10373000C801B7010E94C33A69877A878B879C8743
:10374000C401B301A20191010E9498370E948438FC
:10375000698B7A8B8B8B9C8B69817A818B819C8125
:103760002D853E854F8558890E9498370E94843860
:103770006D8B7E8B8F8B988FC601B50120E030E07A
:1037800040E251E40E94403A9B01AC01C401B30104
:103790000E949937A20191010E9498370E948438B3
:1037A0006B017C0169857A858B859C8520E030E002
:1037B00040E251E40E94403A9B01AC0169817A8168
:1037C0008B819C810E9499372D853E854F85588934
:1037D0000E9498370E9484388B019C0189896D89E9
:1037E0004C2D202F01E00E94F9304091920550911C
:1037F00093056091940570919505009130041091A6
:10380000310420913204309133048CE095E0B8E02B
:10381000EB2EA3E0CA2EF1E9AF2EF1E0BF2E0E94FD
:10382000DB198091EE039091EF03019741F58091B0
:10383000500590915105009731F064E070E00E94CE
:10384000483B0397E4F040918E0550918F056091BD
:1038500090057091910500915F0310916003209194
:1038600061033091620385E795E0E6E0EE2EB5E076
:10387000CB2EABEBAA2EA1E0BA2E0E94DB198091D1
:103880004E0590914F050197E1F44091C20550918A
:10389000C3056091C4057091C5050091670310913F
:1038A00068032091690330916A0388EB92E0F7E0A6
:1038B000EF2EE6E0CE2EB5EBAB2EB1E0BB2E0E9494
:1038C000DB1980916F04909170040197E1F44091AD
:1038D000D4055091D5056091D6057091D70500911A
:1038E000F0031091F1032091F2033091F30381E290
:1038F00095E0A8E0EA2EF7E0CF2EEAEAAE2EE1E06E
:10390000BE2E0E94DB1912E5812E15E0912EB1E743
:103910006B2EB3E07B2E44245524D4018D919C91D1
:103920000197C9F4F201E157FB4F40815181628157
:103930007381F201E85FFB4F0081118122813381A5
:10394000C301A2E0EA2EF2E0CF2EE3EBAE2EE1E0DF
:10395000BE2E0E94DB19E2E0F0E08E0E9F1E24E0F6
:1039600030E0420E531E85E190E0680E791E9CE522
:10397000891695E0990689F6BAE38B2EB3E09B2E63
:10398000A3EA6A2EA4E07A2E44245524D4018D9112
:103990009C910197C9F4F201EC50FC4F4081518198
:1039A00062817381F201E35BFB4F0081118122810F
:1039B0003381C301F7E0EF2EE7E0CE2EB3EAAB2E62
:1039C000B1E0BB2E0E94DB19E2E0F0E08E0E9F1EFC
:1039D00024E030E0420E531E85E190E0680E791E2F
:1039E00094E4891693E0990689F6A5E68A2EA4E068
:1039F0009A2EFDEC6F2EF2E07F2E44245524D40144
:103A00008D919C910197C9F4F201E652FC4F4081DF
:103A1000518162817381F201E45EFB4F008111816B
:103A200022813381C301E7E0EE2EB6E0CB2EA4E97C
:103A3000AA2EA1E0BA2E0E94DB19E2E0F0E08E0E81
:103A40009F1E24E030E0420E531E85E190E0680E98
:103A5000791E9FE6891694E0990689F6E090960211
:103A6000F09097020091980210919902C801B70155
:103A700020E030E040E050E00E94103888230CF055
:103A800061C0C801B70120E030E040E85FE30E9478
:103A900098370E947F387C8F6B8F1B013094219464
:103AA000310833944BC080909A0290909B02A09072
:103AB0009C02B0909D02B101882777FD8095982FD8
:103AC0000E94B2382B013C01CC24DD246091960287
:103AD00070919702809198029091990220E030E0D5
:103AE00040E050E00E94103888231CF4F1E0CF2E13
:103AF000D12C8501740117FB109517F91095609171
:103B0000C4017091C5018091C6019091C701A501C2
:103B100094010E9498374B015C01C601B301A201D8
:103B200098018701730162010E941A19AB8DBC8D47
:103B30001196BC8FAB8F089421083108EB8DFC8D5A
:103B4000F7FDB1CF60919602709197028091980233
:103B50009091990220E030E048EA52E40E949937BF
:103B60007B018C012091C0013091C1014091C201C3
:103B70005091C3010E943C3A18160CF07BC0C8015A
:103B8000B7010E947F3878876F835AC0E090960211
:103B9000F0909702009198021091990260909A0219
:103BA00070909B0280909C0290909D02C601B5018E
:103BB000A80197010E949837D62EC72E898F9A8F19
:103BC0001C8E1B8EC801B70120E030E048EA52E4A9
:103BD0000E949937A20191010E943C3A181624F4E0
:103BE00021E030E03C8F2B8F8401730117FB10958F
:103BF00017F910956091C4017091C5018091C601BB
:103C00009091C701A40193010E9498374B015C0178
:103C10008B8D9C8D2D2D3C2DE98DFA8DA901BF0139
:103C200098018701ED2DFC2D798C6A8C6F01E72CB2
:103C3000F62C0E941A198F819885019798878F8397
:103C4000AF81B885BD01882777FD8095982F0E94A8
:103C5000B2385B016C012090C0013090C1014090EE
:103C6000C2015090C301A20191010E943C3A181672
:103C70000CF48CCFE0909A02F0909B0200919C0291
:103C800010919D02C801B70120E030E040E050E013
:103C90000E94103888230CF042C0C801B7010E946E
:103CA0007F382B0166247724661A770A36C0B30161
:103CB000882777FD8095982F0E94B2384B015C01D0
:103CC00000E010E060919A0270919B0280919C024A
:103CD00090919D0220E030E040E050E00E941038DA
:103CE000882314F401E010E0C80140E050E060E8EF
:103CF0007FE3950184010F2EF0E0CF2EF0E0DF2E60
:103D0000F6EAEF2EF2E4FF2EF02D0E941A19089425
:103D1000411C511C08946108710857FCC8CF609180
:103D20009A0270919B0280919C0290919D0220E0EA
:103D300030E040E452E40E9499377B018C012091ED
:103D4000C4013091C5014091C6015091C7010E9444
:103D50003C3A18163CF0E8ECF5E0FE83ED831C8E4F
:103D60001B8E60C0C801B7010E947F382B0141C083
:103D7000E0909A02F0909B0200919C0210919D02AB
:103D8000C601B501A80197010E949837B62EA72E4B
:103D9000382E292ECC24DD24C801B70120E030E0E4
:103DA00040E452E40E949937A40193010E943C3AF6
:103DB00018161CF4E1E0CE2ED12CC60140E050E0F4
:103DC00060E87FE3EB2DFA2DA32DB22D8F019D012D
:103DD0000F2EF0E0CF2EF0E0DF2EF6EAEF2EF2E429
:103DE000FF2EF02D4F015D010E941A190894410821
:103DF0005108B201882777FD8095982F0E94B2382C
:103E00005B016C016090C4017090C5018090C60197
:103E10009090C701A40193010E943C3A18160CF43B
:103E2000A7CF99CFAD81BE818D919C91019709F06B
:103E300056C08091B2029091B302181619060CF088
:103E40004EC0E0909602F090970200919802109177
:103E50009902A0909A02B0909B02C0909C02D090D0
:103E60009D02EB8DFC8DEA5CFA4F6081718182814D
:103E70009381A80197010E9498371B012C01EB8DBB
:103E8000FC8DE852FA4F6081718182819381A60195
:103E900095010E9498373B014C01EB8DFC8DEF584A
:103EA000FB4F6081718182819381A80197010E94FB
:103EB00098377B018C01EB8DFC8DE655FA4F6081C4
:103EC000718182819381A60195010E9498375B01DF
:103ED0006C01C201B101A40193010E94E717ED81B9
:103EE000FE813296FE83ED832B8D3C8D2C5F3F4F00
:103EF0003C8F2B8FE45DF54009F094CF6C960FB6A4
:103F0000F894DEBF0FBECDBFCF91DF911F910F910F
:103F1000FF90EF90DF90CF90BF90AF909F908F90E9
:103F20007F906F905F904F903F902F900895EF9209
:103F3000FF920F931F93E0908502F090860200910C
:103F4000870210918802C801B70120E030E040E408
:103F500050E40E943C3A18160CF070C0C801B7013A
:103F600020E030E040E850E40E943C3A18168CF41F
:103F7000C801B70120E030E040E85FE30E949837D5
:103F800060938502709386028093870290938802E3
:103F900079C080E090E0A0E8B0E48093850290933F
:103FA0008602A0938702B09388024091D30150917A
:103FB000D401DA01FD0101900020E9F73197EA1BF5
:103FC000FB0BF695E795CF01880F991F880F991F76
:103FD0008E0F9F1F1AE2212F281B822F6CE021E0F9
:103FE0000E949D324091DE015091DF01DA01FD0116
:103FF00001900020E9F73197EA1BFB0BF695E79556
:10400000CF01880F991F880F991F8E0F9F1F181BB4
:10401000812F68E121E00E949D320E941607892BC2
:1040200089F180E090E0A0E4B0E480938502909371
:104030008602A0938702B093880224C0C801B7010A
:1040400023E830EC4AEC5DE30E9498379B01AC0119
:104050002093850230938602409387025093880212
:104060000E94FD3720E030E040E452E40E9499379E
:104070000E9484389B01AC018AE268E1422F21E072
:104080000E9448321F910F91FF90EF9008952F9258
:104090003F924F925F926F927F928F929F92AF92D8
:1040A000BF92CF92DF92EF92FF920F931F93DF9315
:1040B000CF93CDB7DEB7A2970FB6F894DEBF0FBE91
:1040C000CDBF0E94BE3080E00E9410038F3FE9F414
:1040D00040912D0250912E02DA01FD010190002045
:1040E000E9F73197EA1BFB0BF695E7959F01220F45
:1040F000331F220F331F2E0F3F1F8AE2821B6CE0FB
:1041000021E00E949D320C948E3081E00E94950641
:10411000AA2797FDA095BA2FBC01CD010E94B23805
:1041200020E030E044E35FE30E94403A20E030E0EA
:1041300044EB53E40E9407399B01AC01CA01B90169
:104140002BED3FE049E450E40E94403A20E030E0AB
:1041500044E353E40E9417386093B4027093B502AD
:104160008093B6029093B7028091490490914A04DB
:104170001816190684F483709070892B11F40E942C
:1041800036078091490490914A04019790934A041C
:104190008093490406C02A982B9810924A041092E2
:1041A00049046091AE027091AF028091B00290918B
:1041B000B10220E030E84AEB53E40E9499370E94B4
:1041C0007F3825E731E07B012E9DB0012F9D700DDA
:1041D0003E9D700D1124882777FD8095982F0E94B1
:1041E000B2386093890470938A0480938B0490930F
:1041F0008C040E948438DC01CB010E94FC3BE090DF
:104200008502F09086020091870210918802C80111
:10421000B70120E030E040E050E00E943C3A181640
:10422000A4F1189928C080916B0390916C03181623
:1042300019060CF16091A2027091A3028091A40270
:104240009091A50220E030E040E050E00E943C3A2E
:1042500018168CF060919E0270919F028091A002CE
:104260009091A10220E030E040E050E00E943C3A12
:1042700018160CF0F6C0C801B70120E030E040E0AD
:1042800050E00E943C3A1816C4F40E94971F809197
:10429000630490916404892B11F00C948E3080910A
:1042A0004602909147020E94FF0A81E090E09093BD
:1042B0006404809363040C948E3060919E0270912C
:1042C0009F028091A0029091A10220E030E040E0A6
:1042D00050E00E943C3A18160CF03EC00E94E511D6
:1042E000E0909E02F0909F020091A0021091A10226
:1042F000C801B70120E030E040E05FE30E943C3AB3
:10430000181694F4C801B7012DEC3CEC4CEC5DE3BD
:104310000E94983760939E0270939F028093A00240
:104320009093A1020C948E300E941607892B11F4F1
:104330000C948E3080E090E0A0E0B0E080939E028C
:1043400090939F02A093A002B093A1020E94BE305E
:104350000E948A090C948E306091A2027091A3028F
:104360008091A4029091A50220E030E040E050E06E
:104370000E943C3A181624F40E9460170C948E3068
:10438000189B06C00E94EC100E94F1110C948E3014
:1043900080916B0390916C031816190614F00C941D
:1043A0008E30019790936C0380936B0302979CF47B
:1043B00080916104909162041816190664F08AE9EC
:1043C00099E9A9E1BFE380939E0290939F02A09395
:1043D000A002B093A10280916B0390916C03892B92
:1043E00011F00C948E3084E090E09093AD028093B5
:1043F000AC02109251051092500580E090E0A0E8C8
:10440000BFEB80939E0290939F02A093A002B09373
:10441000A10210924C0410924B041092C705109206
:10442000C605109245031092440310928E04109218
:104430008D0481E795E066E373E020E030E040EE34
:1044400050E40F2EF0E0EF2EF0E0FF2EF0E00F2F03
:10445000F1E41F2FF02DCC24DD240E949A120C943D
:104460008E300E94EC1080916303909164031816C3
:1044700019062CF40197909364038093630369B148
:1044800023B170E061707070269530E0217030705B
:10449000621B730B882777FD8095982F0E94B23896
:1044A000209171053091720540917305509174050A
:1044B0000E9499376D8F7E8F8F8F98A363B129B13A
:1044C0006623772767FD70956627770F661F772726
:1044D000269530E021703070621B730B882777FDC2
:1044E0008095982F0E94B23820913603309137037F
:1044F00040913803509139030E949937698F7A8F20
:104500008B8F9C8F6D8D7E8D8F8D98A120E030E0FC
:1045100040E450E40E94983720E030E040E050E072
:104520000E943C3A18160CF0F6C1698D7A8D8B8D7D
:104530009C8D20E030E040E850E40E94983720E075
:1045400030E040E050E00E943C3A18160CF0E3C125
:104550006D8D7E8D8F8D98A120E030E040E450E499
:104560000E9499372091C0013091C1014091C20150
:104570005091C3010E94103888230CF0CCC1698D82
:104580007A8D8B8D9C8D20E030E040E850E40E94D5
:10459000993720E030E040E050E40E9498372091C5
:1045A000C4013091C5014091C6015091C7010E94DC
:1045B000103888230CF0AFC178EC272E75E0372E29
:1045C00001E010E0188F0F8B1AA219A2D1018D9172
:1045D0009C91019709F075C180914B0490914C0416
:1045E000892B09F099C040909205509093056090F6
:1045F00094057090950500D000D020913004309142
:10460000310440913204509133040F2EF0E0EF2E2C
:10461000F0E0FF2EF0E00F2FF0E01F2FF02DADB7F0
:10462000BEB71196ED92FD920D931C931497C301A2
:10463000B2010F2EF0E0EF2EF0E0FF2EF0E00F2F92
:10464000F1E41F2FF02D0F2EF0E0AF2EF0E0BF2E83
:10465000F0E4CF2EF0E4DF2EF02D89A09AA00E9486
:104660004C080F900F900F900F90892B09F454C0B5
:104670000E94F73BAA2797FDA095BA2FBC01CD0158
:104680000E94B23820E030E040E850E40E94073950
:104690007B018C01C301B20120E030E040E050E436
:1046A0000E949837A80197010E949937609392055C
:1046B00070939305809394059093950560913004D1
:1046C00070913104809132049091330420E030E005
:1046D00040E050E40E9498377B018C010E94F73B38
:1046E000AA2797FDA095BA2FBC01CD010E94B23830
:1046F00020E030E040E850E40E9407399B01AC0123
:10470000C801B7010E949937609330047093310457
:10471000809332049093330400D000D00F2EF0E049
:10472000EF2EF0E0FF2EF0E00F2FF0E01F2FF02D26
:10473000ADB7BEB71196ED92FD920D931C931497F1
:104740006D8D7E8D8F8D98A1298D3A8D4B8D5C8DD1
:104750000F2EF0E0EF2EF0E0FF2EF0EE0F2FF0E442
:104760001F2FF02D0F2EF0E0AF2EF0E0BF2EF0E067
:10477000CF2EF1E4DF2EF02D89A09AA00E944C08E4
:104780000F900F900F900F90892B11F0188E1F8AA9
:10479000409071055090720560907305709074059B
:1047A00000D000D020913603309137034091380378
:1047B000509139030F2EF0E0EF2EF0E0FF2EF0E0E5
:1047C0000F2FF0E01F2FF02DADB7BEB71196ED9271
:1047D000FD920D931C931497C301B2010F2EF0E0CC
:1047E000EF2EF0E0FF2EF0EE0F2FF0E41F2FF02D54
:1047F0000F2EF0E0AF2EF0E0BF2EF0E0CF2EF1E470
:10480000DF2EF02D89A09AA00E944C080F900F90E7
:104810000F900F90892B09F454C00E94F73BAA27F0
:1048200097FDA095BA2FBC01CD010E94B23820E0BF
:1048300030E040E850E40E9407397B018C01C3015D
:10484000B20120E030E040E050E40E949837A80137
:1048500097010E9499376093710570937205809358
:1048600073059093740560913603709137038091BE
:1048700038039091390320E030E040E050E40E949A
:1048800098377B018C010E94F73BAA2797FDA095E2
:10489000BA2FBC01CD010E94B23820E030E040E8E0
:1048A00050E40E9407399B01AC01C801B7010E9486
:1048B000993760933603709337038093380390934E
:1048C0003903E9A1FAA13196FAA3E9A362E0E62E41
:1048D000F12C2E0C3F1C369709F078CE0F89188DDD
:1048E00001301105C1F42D8D3E8D4F8D58A12093BF
:1048F0007105309372054093730550937405898D4B
:104900009A8DAB8DBC8D8093360390933703A09323
:104910003803B0933903AAEDB3E0BE83AD835CE105
:10492000252E54E0352EE5E6F4E0FC83EB83AB81E5
:10493000BC818D919C91019709F0B7C2ED81FE81F8
:1049400080809180A280B380E0909602F0909702E0
:104950000091980210919902C501B401A801970134
:104960000E943C3A18160CF0A0C2C801B70120E022
:1049700030E048EA52E40E9499379B01AC01C5013E
:10498000B4010E94103888230CF08FC2D1014D90E1
:104990005D906D907C90E0909A02F0909B02009167
:1049A0009C0210919D02C301B201A80197010E94CF
:1049B0003C3A18160CF079C2C801B70120E030E08B
:1049C00040E452E40E9499379B01AC01C301B2015B
:1049D0000E94103888230CF068C2C0907105D090F6
:1049E0007205E0907305F090740500E010E0C501D9
:1049F000B401A70196010E941038882314F401E045
:104A000010E01AA219A2C501B401A70196010E94E3
:104A10003C3A181624F4E1E0F0E0FAA3E9A3E9A097
:104A2000FAA00E191F09B801882777FD8095982FE5
:104A30000E94B2382DEC3CEC4CEC5DE30E94403A15
:104A40009B01AC01C501B4010E9499376B8B7C8B33
:104A50008D8B9E8BC0903603D0903703E090380347
:104A6000F090390320E030E040E450E40E949837B1
:104A700020E030E040E050E00E943C3A18160CF094
:104A80006BC100E010E0C301B201A70196010E94D2
:104A90001038882314F401E010E0AA24BB24C301D9
:104AA000B201A70196010E943C3A18161CF441E09D
:104AB000A42EB12C0A191B09B801882777FD80950F
:104AC000982F0E94B2382DEC3CEC4CEC5DE30E9438
:104AD000403A9B01AC01C301B2010E9499372B01FE
:104AE0003C0120E030E040E450E40E94983720E0B0
:104AF00030E040E050E00E943C3A18160CF02CC127
:104B00006B897C898D899E8920E030E040E450E407
:104B10000E9499372091C0013091C1014091C2019A
:104B20005091C3010E94103888230CF015C1C301B5
:104B3000B20120E030E040E450E40E949937209137
:104B4000C4013091C5014091C6015091C7010E9436
:104B5000103888230CF000C108EC15E018870F838B
:104B600021E030E03A8B298B1AA219A2AF81B885D7
:104B70008D919C910197D1F500D000D00F2EF0E0DF
:104B8000EF2EF0E0FF2EF0E80F2FFFE31F2FF02DA8
:104B9000ADB7BEB71196ED92FD920D931C9314978D
:104BA0006B897C898D899E89A30192010F2EF0E08B
:104BB000EF2EF0E0FF2EF0EE0F2FF0E41F2FF02D80
:104BC0000F2EF0E0AF2EF0E0BF2EF0ECCF2EF0E491
:104BD000DF2EF02D89A09AA00E944C080F900F9014
:104BE0000F900F90892B11F01A8A198A00D000D0EB
:104BF000ED81FE816081718182819381D1012D914E
:104C00003D914D915C910F2EF0E0EF2EF0E0FF2EE4
:104C1000F0E80F2FFFEB1F2FF02DADB7BEB71196A9
:104C2000ED92FD920D931C9314970F2EF0E0EF2E52
:104C3000F0E0FF2EF0EE0F2FF0E41F2FF02D0F2EDF
:104C4000F0E0AF2EF0E0BF2EF0ECCF2EF0E4DF2E40
:104C5000F02D89A09AA00E944C080F900F900F9001
:104C60000F90892B09F455C00E94F73BAA2797FDA6
:104C7000A095BA2FBC01CD010E94B23820E030E0EF
:104C800044EB53E40E9407399B01AC01CA01B9010E
:104C90002BED3FE049E450E40E94403A20E030E050
:104CA00044E353E40E9417387B018C01C8010E9441
:104CB000143820E030E040EA50E40E94403A9B0182
:104CC000AC01ED81FE8160817181828193810E94BE
:104CD0009937AD81BE816D937D938D939C9313978E
:104CE000B701C8010E94C33A20E030E040EA50E436
:104CF0000E94403A9B01AC01F10160817181828187
:104D000093810E949937D1016D937D938D939C93EC
:104D10001397E9A1FAA13196FAA3E9A30F811885A7
:104D20000E5F1F4F18870F83369709F01FCF298911
:104D30003A892130310581F48B899C89AD89BE89FE
:104D4000ED81FE8180839183A283B383D1014D9253
:104D50005D926D927C921397EDB7FEB770970FB688
:104D6000F894FEBF0FBEEDBF319660917105709152
:104D700072058091730590917405209136033091EE
:104D800037034091380350913903AD81BE81ED90D6
:104D9000FD900D911C91ADB7BEB71196ED92FD92AD
:104DA0000D931C931497D101ED90FD900D911C91E2
:104DB000E482F582068317830F2EF0E0EF2EF0E0F9
:104DC000FF2EF0EE0F2FF0E41F2FF02DE086F1867E
:104DD000028713870F2EF0E0EF2EF0E0FF2EF0ECAD
:104DE0000F2FF0E41F2FF02DE486F5860687178736
:104DF0000F2EF0E0EF2EF0E0FF2EF0EE0F2FF0E49C
:104E00001F2FF02D0F2EF0E0AF2EF0E0BF2EF0E0C0
:104E1000CF2EF1E4DF2EF02D0E944B070DB71EB709
:104E2000005F1F4F0FB6F8941EBF0FBE0DBF892B3A
:104E3000E1F180916F04909170040197E9F4809101
:104E40008D0490918E040197B9F480915A0290914B
:104E50005B020E94FF0AAB81BC811D921C921092E2
:104E6000700410926F0410928E0410928D041092B0
:104E700064031092630319C08091610490916204ED
:104E800001979093620480936104809168029091ED
:104E900069020E94FF0AEAE0F0E0F0936C03E093FD
:104EA0006B03F0934A04E09349040B811C810E5F6D
:104EB0001F4F1C830B832D813E812C5F3F4F3E8310
:104EC0002D8344E050E0240E351E0F56144009F0A7
:104ED0002ECD3AE3232E33E0332E882499240F2E4F
:104EE000F0E04F2EF0E05F2EF0EE6F2EF0E47F2E1C
:104EF000F02DD1018D919C91019709F072C0EDB711
:104F0000FEB770970FB6F894FEBF0FBEEDBFADB7FA
:104F1000BEB711966091710570917205809173050D
:104F200090917405209136033091370340913803F6
:104F300050913903F401EC50FC4FE080F180028184
:104F40001381EDB7FEB7E182F28203831483F4018B
:104F5000E35BFB4FE080F180028113811496ED92B8
:104F6000FD920D931C93179718964D925D926D923A
:104F70007C921B971C964D925D926D927C921F972E
:104F80000F2EF0E0EF2EF0E0FF2EF0EE0F2FF0E40A
:104F90001F2FF02D0F2EF0E0AF2EF0E0BF2EF0E02F
:104FA000CF2EF1E4DF2EF02D0E944B070DB71EB778
:104FB000005F1F4F0FB6F8941EBF0FBE0DBF892BA9
:104FC00081F087E091E00E94A90FD1011D921C920F
:104FD00080916503909166030A969093660380938F
:104FE0006503E2E0F0E02E0E3F1E24E0E22EF12CFD
:104FF0008E0C9F1C04E4201603E0300609F079CFE4
:1050000080914B0490914C04E0909205F0909305B0
:105010000091940510919505892B09F009C1AA24E6
:10502000BB24C801B70120E030E040E051E40E9419
:10503000983720E030E040E050E00E9410388823AC
:105040001CF491E0A92EB12CCC24DD24C801B701B9
:1050500020E030E040E051E40E9499372091C00107
:105060003091C1014091C2015091C3010E943C3A6C
:1050700018161CF481E0C82ED12CAC18BD08B5015F
:10508000882777FD8095982F0E94B2389B01AC014C
:10509000C801B7010E9499376093920570939305F8
:1050A0008093940590939505E0903004F09031043E
:1050B0000091320410913304AA24BB24C801B70123
:1050C00020E030E040E450E40E94983720E030E0F7
:1050D00040E050E00E94103888231CF4B1E0AB2E71
:1050E000B12CCC24DD24C801B70120E030E040E43D
:1050F00050E40E9499372091C4013091C50140913C
:10510000C6015091C7010E943C3A18161CF4A1E058
:10511000CA2ED12CAC18BD08B501882777FD809523
:10512000982F0E94B2389B01AC01C801B7010E94C0
:1051300099379B01AC0120933004309331044093A4
:105140003204509333042DB73EB7205130400FB690
:10515000F8943EBF0FBE2DBFEDB7FEB73196A090BD
:105160007105B0907205C0907305D09074052091C0
:105170003603309137034091380350913903E09062
:105180009205F09093050091940510919505ADB7A7
:10519000BEB71196ED92FD920D931C931497072FB5
:1051A000F82EE92E862F902FAF2DBE2D8483958368
:1051B000A683B78380E090E0A0E0B1E48087918788
:1051C000A287B38780E090E0A0E4B0E4848795876D
:1051D000A687B787C601B5010F2EF0E0EF2EF0E0ED
:1051E000FF2EF0EE0F2FF0E41F2FF02D0F2EF0E02A
:1051F000AF2EF0E0BF2EF0E0CF2EF1E4DF2EF02D49
:105200000E944B07EDB7FEB770960FB6F894FEBF3D
:105210000FBEEDBF892B09F4D1C081E090E09093DF
:105220004C0480934B0481E191E00E94A90FC6C019
:10523000609171057091720580917305909174056C
:1052400020E030E040E850E40E949837A801970140
:105250000E94983720E030E040E05EE30E94403A50
:105260009B01AC01C801B7010E9499376093920578
:10527000709393058093940590939505E090300486
:10528000F0903104009132041091330460913603A0
:10529000709137038091380390913903A8019701E9
:1052A0000E94983720E030E040E05EE30E94403A00
:1052B0009B01AC01C801B7010E949937609330048B
:1052C000709331048093320490933304E0908A0504
:1052D000F0908B0500918C0510918D056D8D7E8D64
:1052E0008F8D98A120E030E040EE50E40E94993785
:1052F000A80197010E943C3A18160CF05FC0C80143
:10530000B70120E030E040E051E40E9499379B0172
:10531000AC016D8D7E8D8F8D98A10E9410388823F1
:105320000CF04CC0E0904603F09047030091480316
:1053300010914903698D7A8D8B8D9C8D20E030E032
:1053400040E051E40E949937A80197010E943C3A3D
:105350001816A4F5C801B70120E030E040E151E49F
:105360000E9499379B01AC01698D7A8D8B8D9C8D44
:105370000E941038882314F56091A2027091A30254
:105380008091A4029091A50220E030E040E050E03E
:105390000E941038882391F48091830290918402B6
:1053A0000E94FF0A83E890ECAAE4BFE38093A20284
:1053B0009093A302A093A402B093A50280906F04DF
:1053C00090907004F1E08F16910409F0E7C080918D
:1053D0008D0490918E04892B09F08AC0809163031B
:1053E00090916403181619060CF4D8C00DB71EB7B7
:1053F000005110400FB6F8941EBF0FBE0DBFEDB7A1
:10540000FEB73196609171057091720580917305B8
:105410009091740520913603309137034091380301
:1054200050913903E090D405F090D5050091D60550
:105430001091D705ADB7BEB71196ED92FD920D93C1
:105440001C931497E090F003F090F1030091F203A5
:105450001091F303E482F582068317830F2EF0E0A8
:10546000EF2EF0E0FF2EF0E00F2FF1E41F2FF02DD4
:10547000E086F186028713870F2EF0E0EF2EF0E032
:10548000FF2EF0EE0F2FF0E41F2FF02DE486F586AF
:10549000068717870F2EF0E0AF2EF0E0BF2EF0E06A
:1054A000CF2EF1E4DF2EF02D0E944B07EDB7FEB7B3
:1054B00070960FB6F894FEBF0FBEEDBF892B09F4AE
:1054C0006DC010924503109244031092C7051092CC
:1054D000C60590928E0480928D0486E191E00E9430
:1054E000A90F8EE190E0909364038093630356C00C
:1054F000E090D405F090D5050091D6051091D70520
:105500006091710570917205809173059091740599
:1055100020E030E040E850E40E949937A80197016C
:105520000E94983720E030E040E450E40E941738B1
:105530009B01AC01C801B7010E9499376093D40563
:105540007093D5058093D6059093D705E090F0032E
:10555000F090F1030091F2031091F3036091360390
:10556000709137038091380390913903A801970116
:105570000E94983720E030E040E450E40E94173861
:105580009B01AC01C801B7010E9499376093F003F9
:105590007093F1038093F2039093F3038090EE03F2
:1055A0009090EF03F1E08F16910409F0E7C180912C
:1055B000500590915105181619060CF097C00197E7
:1055C0009093510580935005892B09F0D7C1109213
:1055D000C7051092C6051092EF031092EE031092C9
:1055E0005105109250058AE090E090934A04809310
:1055F0004904F5E66F2EF4E07F2E88249924D30128
:105600008D919C91019709F061C0F401E652FC4F25
:10561000A080B180C280D380E0909602F090970283
:105620000091980210919902C601B501A801970155
:105630000E943C3A18160CF049C0C801B70120E09E
:1056400030E048EA52E40E9499379B01AC01C60160
:10565000B5010E9410388823CCF5F401E45EFB4FBD
:10566000A080B180C280D380E0909A02F0909B022B
:1056700000919C0210919D02C601B501A8019701FD
:105680000E943C3A181614F5C801B70120E030E03A
:1056900040E452E40E9499379B01AC01C601B50178
:1056A0000E941038882394F480915A0290915B02F2
:1056B0000E94FF0AF301118210828091650390918C
:1056C00066030A969093660380936503E2E0EE2EEC
:1056D000F12C6E0C7F1C04E010E0800E911E1FE682
:1056E000611614E0710609F08ACF48C18091C605A1
:1056F0009091C705892B09F094C080916303909124
:105700006403181619060CF439C12DB73EB72051A1
:1057100030400FB6F8943EBF0FBE2DBFEDB7FEB7B9
:105720003196609171057091720580917305909129
:10573000740520913603309137034091380350911E
:105740003903E0908E05F0908F050091900510913F
:105750009105ADB7BEB71196ED92FD920D931C93D6
:105760001497E0905F03F090600300916103109143
:105770006203E482F582068317830F2EF0E0EF2E9A
:10578000F0E0FF2EF0EC0F2FF0E41F2FF02DE0865D
:10579000F186028713870F2EF0E0EF2EF0E0FF2E48
:1057A000F0EA0F2FF0E41F2FF02DE486F586068730
:1057B00017870F2EF0E0EF2EF0E0FF2EF0EE0F2F08
:1057C000F0E41F2FF02D0F2EF0E0AF2EF0E0BF2EF3
:1057D000F0E0CF2EF1E4DF2EF02D0E944B07EDB765
:1057E000FEB770960FB6F894FEBF0FBEEDBF892BC3
:1057F00009F4C4C010924503109244039092C70567
:105800008092C60510928E0410928D048EE191E074
:105810000E94A90F8EE190E090936403809363034C
:10582000ADC0E0908E05F0908F050091900510912D
:105830009105609171057091720580917305909149
:10584000740520E030E040E450E40E949937A8015C
:1058500097010E94983720E030E040E450E40E9435
:1058600017389B01AC01C801B7010E9499376093BA
:105870008E0570938F058093900590939105E0902D
:105880005F03F090600300916103109162036091E7
:105890003603709137038091380390913903A80142
:1058A00097010E94983720E030E040E450E40E94E5
:1058B00017389B01AC01C801B7010E94993760936A
:1058C0005F037093600380936103909362030E946F
:1058D0001607892B09F452C0E090B402F090B5028B
:1058E0000091B6021091B702C801B7010E941438A6
:1058F00020E030E040E051E40E94403A9B01AC01DE
:105900006091710570917205809173059091740595
:105910000E94993760938E0570938F058093900550
:1059200090939105C801B7010E94C33A20E030E08E
:1059300040E051E40E94403A9B01AC016091360383
:105940007091370380913803909139030E94993701
:1059500060935F037093600380936103909362038D
:105960001092C7051092C6058CE390E09093510504
:1059700080935005109264031092630380914E054A
:1059800090914F05019709F0DCC08091AC02909195
:10599000AD0297FF0CC01092450310924403109281
:1059A0004F0510924E051092640310926303E0902D
:1059B0006D03F0906E0300916F0310917003C801A6
:1059C000B70120E030E040E050E00E943C3A181679
:1059D0008CF4C801B70120E030E040E85FE30E94AA
:1059E000983760936D0370936E0380936F03909369
:1059F00070030CC080E090E0A0E0B0E080936D0305
:105A000090936E03A0936F03B0937003809144034F
:105A100090914503892B09F0A5C080916303909173
:105A20006403181619060CF48CC00DB71EB700518C
:105A300010400FB6F8941EBF0FBE0DBFEDB7FEB7F6
:105A40003196609171057091720580917305909106
:105A500074052091360330913703409138035091FB
:105A60003903E090C205F090C3050091C405109180
:105A7000C505ADB7BEB71196ED92FD920D931C937F
:105A80001497E0906703F090680300916903109108
:105A90006A03E482F582068317830F2EF0E0EF2E6F
:105AA000F0E0FF2EF0EE0F2FF0E41F2FF02DE08638
:105AB000F186028713870F2EF0E0EF2EF0E0FF2E25
:105AC000F0EC0F2FF0E41F2FF02DE486F58606870B
:105AD00017870F2EF0E0EF2EF0E0FF2EF0EE0F2FE5
