:1000000079C1000092C1000090C100008EC10000C3
:100010008CC100008AC1000088C1000086C10000B8
:1000200084C1000082C1000013C300004CC3000063
:100030007CC100007AC1000078C1000076C10000D8
:1000400074C1000072C1000070C100006EC10000E8
:100050006CC100006AC1000068C1000066C10000F8
:1000600064C1000062C1000060C100005EC1000008
:100070005CC100005AC1000058C1000056C1000018
:1000800054C1000052C1000050C100004EC1000028
:100090004CC100004AC1000048C1000046C1000038
:1000A00044C1000042C1000040C10000222C206D6C
:1000B000757374206265203F206F72203D0D0A0029
:1000C000556E6B6E6F776E20636F6D6D616E642021
:1000D0002200222C206D7573742062652030206F01
:1000E0007220310D0A00556E6B6E6F776E2076614F
:1000F0006C75652022000D0A00222C206D7573742A
:10010000206265203020746F20370D0A00556E6B19
:100110006E6F776E2070696E202200222C206D7524
:1001200073742062652041202D20460D0A00556E13
:100130006B6E6F776E20706F7274202200756E7216
:1001400065636F676E697A656420666F726D61744E
:100150002C2033206368617273206D696E20726594
:100160007127640D0A000D0A003E20000D0A546537
:10017000656E7379205553422053657269616C2016
:100180004578616D706C652C2053696D706C6520CD
:1001900050696E20436F6E74726F6C205368656C8B
:1001A0006C0D0A0D0A4578616D706C6520436F6DAA
:1001B0006D616E64730D0A202042303F2020205272
:1001C00065616420506F727420422C2070696E202B
:1001D000300D0A202043323D30202057726974656B
:1001E00020506F727420432C2070696E2031204C97
:1001F0004F570D0A202044363D3120205772697434
:100200006520506F727420442C2070696E20362057
:10021000484947482020284436206973204C4544EB
:100220002070696E290D0A0D0A00000100005E02AF
:10023000120002000070024300030000B302040138
:10024000030904B7021402030904CD0216030309CB
:1002500004E5020C0001C112018036018136120151
:10026000000202000010C0167A040001010203011E
:1002700009024300020100C0320904000001020229
:1002800001000524001001052401010104240206D7
:10029000052406000107058203100040090401003F
:1002A000020A00000007050302400000070584025F
:1002B00040000004030904140359006F0075007224
:1002C0000020004E0061006D00650000001603551F
:1002D0000053004200200053006500720069006175
:1002E000006C0000000C0331003200330034003594
:1002F0000000000011241FBECFEFDAE0DEBFCDBF4B
:1003000011E0A0E0B1E0E0EAF9E002C005900D9252
:10031000A830B107D9F711E0A8E0B1E001C01D9203
:10032000AC30B107E1F7BFD039C36ACECF93DF93CA
:10033000EC01FE0121968491882311F044D1F9CF7C
:10034000DF91CF910895CF93DF93EC01633018F4E0
:100350008DE391E076C08881982F9154963058F0C3
:100360009052963040F08EE291E0E0DF88812BD110
:100370008BE191E066C029812053283020F48A81E6
:100380008F3319F508C08DE091E0D0DF88811BD153
:1003900089EF90E056C0E3E09E9FF001112481E0D8
:1003A00090E002C0880F991F2A95E2F7382F309508
:1003B00021A1232321A320A1822311F480E301C0E2
:1003C00081E301D186EF90E03CC0633099F18D3339
:1003D00089F58B81803391F4E3E09E9FF001112435
:1003E00081E090E002C0880F991F2A95E2F721A1D1
:1003F000282B21A3809522A1282312C0813391F4B8
:10040000E3E09E9FF001112481E090E002C0880F9C
:10041000991F2A95E2F721A1282B21A322A1282B9D
:1004200022A310C086EE90E081DF8B81CCD082EDDC
:1004300090E007C080EC90E079DF8881C4D08CEA3E
:1004400090E074DFDF91CF9108950F931F93CF93C6
:10045000DF93EC01062F10E01CC07DD09C018FEFD4
:100460002F3F380781F02D303105B9F02A303105A2
:10047000A1F0C90180978F35910558F42993822FF7
:10048000A2D01F5F06C064D0882331F0DED080FF89
:1004900003C0101710F301C01FEF812FDF91CF9120
:1004A0001F910F910895EF92FF921F93DF93CF93C7
:1004B000CDB7DEB7A0970FB6F894DEBF0FBECDBFA5
:1004C00080E88093610010926100569A5E9A27D06E
:1004D0003FD08823E9F380E197E220E931E0F90198
:1004E0003197F1F70197D9F77E010894E11CF11CCF
:1004F000ACD080FFFDCF54D08CE691E017DF89E6C9
:1005000091E014DFC70160E2A0DF182F8F3F81F375
:1005100086E691E00BDFC701612F15DFF0CF81E0A8
:100520008093D70080EA8093D80082E189BD09B426
:1005300000FEFDCF80E98093D8001092E000109279
:100540000801109209018CE08093E20078940895EC
:100550008091080108952FB7F894809108018823AD
:1005600069F083E08093E9009BE68091E80085FDD7
:1005700009C082FF03C09093E800F7CF2FBF2FEF91
:100580003FEF0CC09091F1008091E80085FD03C021
:100590008BE68093E8002FBF292F30E0C901089532
:1005A00080910801882371F09FB7F89483E08093CD
:1005B000E9002BE602C02093E8008091E80085FD69
:1005C000FACF9FBF0895482F809108018823D9F161
:1005D0002FB7F89484E08093E90080910B01882381
:1005E00041F08091E80085FD02C02FBF12C010923B
:1005F0000B019091E400975E34E08091E80085FD66
:1006000013C02FBF8091E400891729F481E0809303
:100610000B018FEF0895809108018823A1F02FB777
:10062000F8943093E900E9CF4093F1008091E8001D
:1006300085FD03C08AE38093E80085E080930A018A
:100640002FBF80E008958FEF0895809109010895EC
:100650001F920F920FB60F9211248F939F93809148
:10066000E1001092E100982F83FF11C01092E90081
:1006700081E08093EB001092EC0082E18093ED002A
:1006800088E08093F000109208011092090192FF17
:1006900013C080910801882379F080910A01882392
:1006A00059F0815080930A01882331F484E08093CB
:1006B000E9008AE38093E8009F918F910F900FBE2D
:1006C0000F901F9018951F920F920FB60F92112442
:1006D0000F931F932F933F934F935F936F937F934A
:1006E0008F939F93AF93BF93EF93FF931092E90083
:1006F0008091E80083FF3CC14091F1003091F1000E
:100700008091F100682F70E02091F100922F80E03D
:10071000682B792B8091F100A82FB0E02091F10097
:10072000922F80E0A82BB92B1091F1000091F100DD
:1007300082EF8093E800363009F05AC021E332E0BE
:10074000A90145505040F90137978591949186173A
:10075000970701F5FA01859194918A179B07D1F4C7
:100760009A012E5F3F4FF901659174912E5F3F4FC3
:10077000F9014491212F30E0902F80E0282B392B74
:100780002F3F310519F010F02FEF30E0241758F407
:10079000422F09C0295F3F4F495F5F4FF2E02B3581
:1007A0003F0789F6E5C05EEF8091E800282F30E032
:1007B000C90185709070892BB9F322FDDCC0342FFC
:1007C000413108F030E1232FCB0106C0FC01019636
:1007D000E491E093F10021502223C1F7630F711DD2
:1007E000431B5093E8004423F9F63031E9F2C3C0CB
:1007F000353061F48EEF8093E8008091E80080FF4F
:10080000FCCF862F80688093E300B5C0393051F566
:10081000442309F0ADC060930801109209011092C1
:100820000A018EEF8093E80084E592E021E02093B6
:10083000E900FC010196E491E093EB00EE2369F0FE
:10084000AC014F5F5F4FFC0184918093EC00CA01C3
:100850000196FA0134913093ED002F5F253039F77E
:100860008EE181C0383061F4403809F081C0809158
:10087000E80080FFFCCF809108018093F10050C018
:10088000313289F4413A09F073C08091E80080FF69
:10089000FCCFE0E0F1E081918093F10081E0E7306E
:1008A000F807C9F73DC03032A1F4413209F060C009
:1008B0008091E80082FFFCCFE0E0F1E08091F10060
:1008C000819381E0E730F807C9F78BEF8093E80068
:1008D00027C0323251F4413209F04AC06093090115
:1008E0008091E80080FFFCCF1BC03323E9F48091A6
:1008F000E80080FFFCCF423811F080E00DC0A093EB
:10090000E9008091EB0090E025E0969587952A9587
:10091000E1F781701092E9008093F1001092F100EC
:100920008EEF8093E80027C0313011F0333001F5AD
:100930004230F1F4672BE1F42A2F2F77822F815078
:100940008430B0F48EEF8093E8002093E9003330D8
:1009500079F089E18093EB0081E090E002C0880F9C
:10096000991F2A95E2F78093EA001092EA0003C0EB
:1009700081E28093EB00FF91EF91BF91AF919F9146
:100980008F917F916F915F914F913F912F911F9127
:100990000F910F900FBE0F901F901895F894FFCFF6
:0809A00000E100000000080066
:00000001FF
